:107000000C9434380C9480390C9480390C94803969
:107010000C9480390C9480390C9480390C9480390C
:107020000C9480390C9480390C9480390C948039FC
:107030000C9480390C9480390C9480390C948039EC
:107040000C9480390C9480390C9480390C948039DC
:107050000C9480390C9480390C9480390C948039CC
:107060000C9480390C948039112411241FBECFEF69
:10707000D8E0DEBFCDBF14BEE0E6F0E088E180835B
:10708000108211E0A0E0B1E0ECEEF5E702C005905F
:107090000D92AC31B107D9F721E0ACE1B1E001C00C
:1070A0001D92A83AB207E1F70E9458380C94F43ABE
:1070B00014BE0FB6F894A895809160008861809303
:1070C0006000109260000FBE0E94C43A84B714BEE4
:1070D0008EEF91E00E94CB3A8730904BB1F181E284
:1070E0008093A70180E090E394B92D9A95E095BD37
:1070F00098E29093BA0094E49093BC007894811540
:1071000081F0C4E4D5EC00E215EE8091A701813254
:10711000A9F580912401811131C080911C01811158
:107120002DC01092BC0015BC15B880E090E00000A6
:107130000197E9F780912401811521F00E94183A06
:1071400010922401E0E0F0E009951092A7018FEF82
:107150009FEF909303018093020160E070E08EEF57
:1071600091E00E94D13A8FEF93E2E4EF815090409A
:10717000E040E1F700C0000081E0B5CF8091200140
:107180009091210101968093200190932101C09359
:10719000BC0080911C01811539F08091240181117E
:1071A0000E94183A10921C018091BC0087FF40C0D9
:1071B0008091B900887F803A09F485C070F48038E6
:1071C00009F44FC0883809F46FC0803661F18091AE
:1071D000BC0080618093BC0029C0883B41F0803CAA
:1071E00009F481C0883A99F710921F012C9A61E046
:1071F00083E00E94943AE0911F0181E08E0F80931A
:107200001F018091A7018231E9F1823209F43FC068
:10721000813009F047C0EF70F0E0E45FFE4F8081FD
:107220008093BB0003C010921F012C9AD093BC0026
:10723000A89B6BCF16BD85B1802785B980910201CF
:1072400090910301029708F450C08091020190913F
:1072500003010197909303018093020181E085BBB4
:1072600054CF6091BB0080911F0191E0980F9093E3
:107270001F010E94A6398111D9CF61E082E00E94EE
:10728000943AD4CFE770F0E0EC5FFE4FC8CFE091C6
:107290002501F091260184913196E0932501F09328
:1072A0002601BECF8FEFBCCF61E084E00E94943A0C
:1072B0006091BB0080911F0191E0980F90931F0196
:1072C0000E94A639B3CF8091A701823449F48091FE
:1072D00025018F7790E0892B19F481E080931C01C0
:1072E00010921F01A3CF2C98A1CF80910201909101
:1072F0000301019709F0B2CF81E28093A701AECFDD
:107300000C9400382091250130912601622F6F776F
:10731000462F50E0F901E61BF109BF01E09300019F
:1073200070930101FA01E95DFE4F80832F5F3F4FAB
:10733000209325013093260181E0809324014F5F43
:107340005F4F40932201509323010895982F862F79
:10735000923009F44FC060F4911117C06330F8F413
:1073600010920301109202018093A70181E0089519
:10737000933009F444C09091A701923209F454C0AB
:10738000923449F40E948239F1CF9091A701913053
:1073900021F0923001F180E00895603821F481E21B
:1073A0008093A701F8CF6111F6CF87E090EB80932F
:1073B0001D0190931E01BC018EEF91E00E94D13A15
:1073C00088E198E00FB6F894A895809360000FBE0E
:1073D00090936000FFCF613010F482E1C5CFD9F601
:1073E00082E28093A7011092240110922201109250
:1073F0002301BCCF1092250160932601B7CF2091C5
:10740000250130912601262B20932501309326015A
:107410008091000190910101019609F0A7CF10928F
:10742000000110920101A2CF92E49093A701AACF8C
:10743000CF93DF936FB7F894209100013091010151
:107440008091220190912301009711F480E890E04F
:10745000303720F07894DF91CF9108950FB6F894EB
:10746000A8954091600048614093600010926000D0
:107470000FBE07B600FCFDCF43E0F90147BFE8951A
:1074800007B600FCFDCFF9013296A90140585F4FC5
:1074900071E0E417F50708F470E4472F50E0F901B4
:1074A00071E0AFEFBFEF0D0177BFE8951124329681
:1074B00041505040C1F7AC01F901A7E2B1E071E0E1
:1074C0004230510538F5AC014E7FFC01E41BF50B51
:1074D000319769F4FA01E20FF31F495D5E4FDA015B
:1074E0008C9190E041E00C0147BFE895112485E0C4
:1074F000F90187BFE89507B600FCFDCF81E18093D5
:107500005700E89510922401109222011092230155
:107510006FBFA1CFCD91DD910E0177BFE89511240A
:10752000329642505109CCCF9EEF980F9630A0F47E
:107530004AB121E030E0F90101C0EE0F8A95EAF787
:107540008E2F4E2B4AB99BB1611519F0892B8BB93F
:10755000089580958923FBCF8850833088F444B107
:1075600021E030E0F90101C0EE0F8A95EAF78E2F95
:10757000242F2E2B24B995B1611519F0892B85B9CB
:10758000089580958923FBCF88E28093BA0085EC2B
:107590008093BC000895A8E1B0E042E050E00C9474
:1075A000D83A0E94E63A272F0C94E73ADC01CB0147
:1075B000FC01F999FECF06C0F2BDE1BDF89A319603
:1075C00000B40D9241505040B8F70895262FF99914
:1075D000FECF1FBA92BD81BD20BD0FB6F894FA9AB6
:0C75E000F99A0FBE01960895F894FFCFB1
:1075EC00FFFF10271E950F80700000005457494272
:0C75FC004F4F542076332E33204E5200A7
:040000030000700089
:00000001FF
